:100000000C94BA000C94D7000C94D7000C94D70031
:100010000C94D7000C94D7000C94D7000C94D70004
:100020000C94D7000C94D7000C94D7000C94D700F4
:100030000C94D7000C94D7000C94D7000C94D700E4
:100040000C94D7000C94D7000C94D7000C94D700D4
:100050000C94D7006E616E00696E660031393A31DA
:10006000323A353400323032302D31302D303100DB
:10007000343900312E302E300000407A10F35A000F
:10008000A0724E18090010A5D4E80000E8764817C1
:100090000000E40B54020000CA9A3B000000E1F5A6
:1000A00005000080969800000040420F000000A06C
:1000B0008601000000102700000000E80300000097
:1000C000006400000000000A0000000000010000C1
:1000D0000000002C76D888DC674F0823DFC1DFAE34
:1000E00059E1B1B796E5E3E453C63AE651997696FD
:1000F000E8E6C28426EB898C9B62ED407C6FFCEFC6
:10010000BC9C9F40F2BAA56FA5F490055A2AF75CF3
:10011000936B6CF9676DC11BFCE0E40D47FEF520A5
:10012000E6B500D0ED902E0300943577050080846D
:100130001E080000204E0A000000C80C3333333381
:100140000F986E12831141EF8D2114893BE65516ED
:10015000CFFEE6DB18D1844B381BF77C1D901DA425
:10016000BBE424203284725E228100C9F124ECA118
:10017000E53D270011241FBECFE5D8E0DEBFCDBF8F
:1001800010E0A0E6B0E0E2E4F9E102C005900D92D3
:10019000AA36B107D9F720E0AAE6B0E001C01D9267
:1001A000AC3DB207E1F70E940A080C949F0C0C9436
:1001B0000000A3E1B0E0EFEDF0E00C94FF087C015B
:1001C0001B016A01FC0117821682838181FF66C3CD
:1001D000BE016F5F7F4F4B01F7019381F10193FDEA
:1001E000859193FF81911F01882309F453C38532C0
:1001F00039F493FD859193FF81911F01853239F484
:10020000B70190E00E94910A56016501E5CF10E028
:10021000512C20E02032A0F48B3269F030F480328F
:1002200059F0833269F420612CC08D3239F080336B
:1002300039F4216026C02260246023C0286021C0D8
:1002400027FD27C030ED380F3A3078F426FF06C07E
:10025000FAE01F9F300D1124132F13C06AE0569E41
:10026000300D1124532E20620CC08E3221F426FD55
:1002700011C3206406C08C3611F4206802C0883691
:1002800041F4F10193FD859193FF81911F0181114B
:10029000C1CF9BEB980F933018F42061805E06C0AD
:1002A0009BE9980F933008F0AAC12F7E26FF16E035
:1002B0002F73722E853621F4F22FF0647F2E08C042
:1002C000863621F4622F6068762E02C0111111501B
:1002D00077FE07C01C3348F444244394410E27E0C2
:1002E0000BC0183030F4212F06C027E04CE3442E19
:1002F00003C027E017E0412C560174E0A70EB11CA3
:10030000F6016081718182819381042DA4010E9494
:10031000A3096C01098100FF02C003FF06C071FC44
:1003200007C072FC08C0612C08C03DE2632E05C006
:100330002BE2622E02C090E2692E802F8C7099F120
:10034000662011F084E001C083E0851510F0512C87
:100350000BC0581A73FC08C0B70180E290E00E94FD
:10036000910A5A94C9F7F3CF662029F0B701862D78
:1003700090E00E94910A03FD03C008E510E002C06E
:1003800004E510E0F72DF0717F2EF80184918823A9
:1003900009F476C271108052B70190E00E94910A70
:1003A0000F5F1F4FF2CF77FE0FC04C0C04FF04C04D
:1003B0008A81813309F44A94141474F5F8E0F41531
:1003C00078F588E0482E2CC076FC2AC0812F90E07A
:1003D0008C159D059CF06CEFC6166FEFD60674F079
:1003E000772D7068772E0AC0E2E0F0E0EC0FFD1F79
:1003F000E10FF11D8081803319F411501111F4CFF8
:1004000077FE0EC044244394410E812F90E0C8161D
:10041000D9062CF41C1904C04424439401C010E0F4
:1004200077FE07C01C141D043CF496012F5F3F4F5C
:1004300005C025E030E002C021E030E0662011F088
:100440002F5F3F4F112331F0412F50E04F5F5F4F3F
:10045000240F351F452D50E02417350714F4521A88
:1004600001C0512C872D897049F4552039F0B7010E
:1004700080E290E00E94910A5A94F7CF662029F01A
:10048000B701862D90E00E94910A73FC09C05520A7
:1004900039F0B70180E390E00E94910A5A94F7CFB7
:1004A00077FE5FC09C2D8D2DD7FE02C090E080E0CE
:1004B000692E782E40E050E0C601841991099D878D
:1004C0008C87960126193709280D391D812F90E058
:1004D000EE27FF27E81BF90BFF87EE87FFEF6F166C
:1004E0007F0669F4B7018EE290E02B8B3A8B488B44
:1004F000598B0E94910A598948893A892B89C614D7
:10050000D70454F06C857D85661577052CF4F901C8
:10051000E40FF51F818101C080E371E0671A710863
:100520004F5F5F4FEE85FF856E167F066CF0B7015B
:1005300090E02B8B3A8B488B598B0E94910A2B8928
:100540003A8948895989CACF6C147D0439F49A8153
:10055000963318F4953311F404FF81E3B70190E06A
:100560004BC08A81813309F00F7EB70190E00E9471
:10057000910A111105C074FE18C085E490E017C0FF
:10058000B7018EE290E00E94910A82E066246394B3
:10059000680EF401E80FF11D8081B70190E00E9420
:1005A000910A115041F3862DF1CF85E690E0B70115
:1005B0000E94910AD7FC05C0C114D10439F404FF8C
:1005C00005C0D194C194D1088DE201C08BE2B7017E
:1005D00090E00E94910A80E36AE0C616D1042CF0F4
:1005E0008F5FFAE0CF1AD108F7CFB70190E00E94F1
:1005F000910AB701C601C0960E94910A41C1833693
:1006000031F0833779F0833509F058C021C05601A5
:1006100072E0A70EB11CF6018081898301E010E031
:10062000640114C05601F2E0AF0EB11CF601C080A7
:10063000D18026FF03C0612F70E002C06FEF7FEF13
:10064000C6012B8B0E94860A8C012B892F7715C03F
:100650005601F2E0AF0EB11CF601C080D18026FF3A
:1006600003C0612F70E002C06FEF7FEFC6012B8BDC
:100670000E947B0A8C012B892068722E23FD1AC0F0
:10068000852D90E008171907A8F4B70180E290E0E3
:100690000E94910A5A94F4CFF60177FC859177FE77
:1006A00081916F01B70190E00E94910A51105A9414
:1006B000015011090115110579F7E2C0843611F0D6
:1006C000893651F5560127FF09C0F4E0AF0EB11C81
:1006D000F60160817181828193810AC0F2E0AF0EE0
:1006E000B11CF60160817181882777FD8095982F74
:1006F000022F0F7697FF08C09095809570956195B1
:100700007F4F8F4F9F4F00682AE030E0A4010E9486
:10071000C30AC82EC8183EC0022F853721F40F7EA9
:100720002AE030E01DC0097F8F3691F018F488353B
:1007300059F0B0C0803719F0883711F0ABC00061B4
:1007400004FF09C0046007C024FF08C0066006C09B
:1007500028E030E005C020E130E002C020E132E0D6
:10076000560107FF09C0F4E0AF0EB11CF60160812D
:1007700071818281938108C0F2E0AF0EB11CF60155
:100780006081718180E090E0A4010E94C30AC82EBC
:10079000C8180F7706FF0BC0202F2E7FC11650F40C
:1007A00004FF0AC002FD08C0202F2E7E05C0DC2CED
:1007B000202F03C0DC2C01C0D12E24FF0DC0FE0170
:1007C000EC0DF11D8081803311F4297E09C022FFD8
:1007D00006C0D394D39404C0822F867809F0D394B2
:1007E00023FD13C020FF06C01C2DD51418F4150DD1
:1007F0001D19D52CD51468F4B70180E290E02B8B3D
:100800000E94910AD3942B89F5CFD51410F45D186A
:1008100001C0512C24FF12C0B70180E390E02B8B64
:100820000E94910A2B8922FF17C021FF03C088E58F
:1008300090E002C088E790E0B7010CC0822F867874
:1008400059F021FD02C080E201C08BE227FD8DE25C
:10085000B70190E00E94910AC11638F4B70180E315
:1008600090E00E94910A1150F7CFCA94F401EC0D68
:10087000F11D8081B70190E00E94910AC110F5CF6F
:10088000552009F4C2CCB70180E290E00E94910AA1
:100890005A94F6CFF7018681978102C08FEF9FEFC0
:1008A0006396E2E10C941B09CF93DF93D82FC62FF8
:1008B0008EEE0E945A088D2F0E9480088C2F0E9475
:1008C0008008DF91CF910C947A08CF92DF92EF925B
:1008D000FF920F931F93CF93DF93C82FF62E172FFE
:1008E000042F8EEE0E945A088C2F0E9480088FEEF3
:1008F0000E947808CF2DD12F10E0E12CF12C680157
:1009000081E0C81AD108E016F10671F0CE14DF04B8
:1009100019F40E94940802C00E948D0888838FEF0A
:10092000E81AF80A2196EFCFDF91CF911F910F912E
:10093000FF90EF90DF90CF900C947A080F931F9365
:10094000AAE6B0E0FD01048115812681378101937B
:1009500011932193319320E0EA3BF207A1F76093D2
:10096000BA007093BB008093BC009093BD0060E020
:1009700070E0CB010D911D912D913D91600F711F84
:10098000821F931F20E0AE3BB207A1F725E130E0C4
:1009900040E050E00E94CD08CA01B9011F910F91BB
:1009A0000895CF93DF9300D0CDB7DEB71A821982B6
:1009B00042E0BE016F5F7F4F8AEA0E946504898131
:1009C0009A819827892798279093D3008093D20003
:1009D00042E0BE016F5F7F4F8CEA0E94650489810F
:1009E0009A819827892798279093DB008093DA00D3
:1009F00042E0BE016F5F7F4F8EEA0E9465048981ED
:100A00009A819827892798279093C7008093C600DA
:100A100042E0BE016F5F7F4F80EB0E9465048981D9
:100A20009A819827892798279093BF008093BE00CA
:100A300042E0BE016F5F7F4F82EB0E9465048981B7
:100A40009A819827892798279093D7008093D6007A
:100A500042E0BE016F5F7F4F84EB0E946504898195
:100A60009A819827892798279093CF008093CE006A
:100A700042E0BE016F5F7F4F86EB0E946504898173
:100A80009A819827892798279093CD008093CC004E
:100A900042E0BE016F5F7F4F88EB0E946504898151
:100AA0009A819827892798279093C1008093C00046
:100AB00042E0BE016F5F7F4F8AEB0E94650489812F
:100AC0009A819827892798279093D5008093D400FE
:100AD00042E0BE016F5F7F4F8CEB0E94650489810D
:100AE0009A819827892798279093D9008093D800D6
:100AF00042E0BE016F5F7F4F8EEB0E9465048981EB
:100B00009A819827892798279093D1008093D000C5
:100B10000F900F90DF91CF910895CF92DF92EF92D7
:100B2000FF920F931F93CF93DF9300D0CDB7DEB723
:100B30001A8219826EE284EF0E9454048FE097E2D9
:100B40000197F1F700C0000042E0BE016F5F7F4FE8
:100B500086EF0E94650429813A81322723273227B4
:100B6000A90160E070E08091CE009091CF009A01E1
:100B7000AB01281B390B41095109A091D600B09156
:100B8000D7000E94EC086B017C018FE0F594E7949C
:100B9000D794C7948A95D1F76091D8007091D90005
:100BA000CB01770FAA0BBB0BBC01CD012BE0660F6D
:100BB000771F881F991F2A95D1F72091D000309177
:100BC000D1008901330F220B330BA90198012C0DA1
:100BD0003D1D4E1D5F1D0E94CD08C20ED31EE41E9A
:100BE000F51EC092C800D092C900E092CA00F092EF
:100BF000CB000F900F90DF91CF911F910F91FF903D
:100C0000EF90DF90CF9008954F925F926F927F9216
:100C10008F929F92AF92BF92CF92DF92EF92FF920C
:100C20000F931F93CF93DF93CDB7DEB727970FB600
:100C3000F894DEBF0FBECDBF8E010F5F1F4F83E064
:100C4000F80111928A95E9F70E948D0564EF84EF0F
:100C50000E9454048FE19BEC0197F1F700C0000063
:100C600043E0B80186EF0E9465048090C800909030
:100C7000C900A090CA00B090CB0090EA891A9FE00A
:100C8000990AA108B108A5019401C501B4010E9407
:100C90009B086C837D838E839F83E091D200F091CB
:100CA000D300A091CC00B091CD009B01AC011CE021
:100CB00055954795379527951A95D1F70E94F708CE
:100CC0006C01FF24D7FCF094EF2CA091C600B091EA
:100CD000C700A50194010E94F708DC01CB012DE0BB
:100CE000B595A795979587952A95D1F78C0D9D1D5C
:100CF000AE1DBF1D0296A11DB11D32E0B595A79591
:100D0000979587953A95D1F79C01AD0130584F4F93
:100D10005F4FA091BE00B091BF000E94EC082B0174
:100D20003C014FE076946794579447944A95D1F7E5
:100D30008981CA80D12CE12CF12CFE2CED2CDC2CED
:100D4000CC24E82A8B81C82A65E0F594E794D794EF
:100D5000C7946A95D1F7A091C000B091C1002C81D1
:100D60003D814E815F810E94F7089B01AC0177E1D4
:100D700055954795379527957A95D1F72C833D83DF
:100D80004E835F83A091DA00B091DB00A50194014E
:100D90000E94F708DC01CB011BE0B595A79597955C
:100DA00087951A95D1F72C813D814E815F81820F05
:100DB000931FA41FB51FAF01FF0F660B770B02E057
:100DC000440F551F661F771F0A95D1F7840F951F93
:100DD000A61FB71F880F991FAA1FBB1FA701960147
:100DE000281B390B4A0B5B0BAAE6B8E10E94EC0802
:100DF00097FD0BC0660F771F881F991FA3019201F3
:100E00000E94AB0869017A010AC0A30192010E9405
:100E1000AB0869017A01CC0CDD1CEE1CFF1C992784
:100E2000F7FC9A958F2D7E2D6D2D9B01AC010E94B4
:100E30009B089B01AC01AEEDBBE00E94EC084B01AE
:100E40005C01A3E4B3EEA70196010E94FA08BB2758
:100E500097FDB095AB2F4501BB2497FCB094AB2C0C
:100E6000880D991DAA1DBB1D8153914FAF4FBF4FD8
:100E700044E0B595A795979587954A95D1F7BC011C
:100E8000CD016C0D7D1D8E1D9F1D6093C200709362
:100E9000C3008093C4009093C5000E949E04609399
:100EA000C2007093C3008093C4009093C50027963E
:100EB0000FB6F894DEBF0FBECDBFDF91CF911F916B
:100EC0000F91FF90EF90DF90CF90BF90AF909F90E9
:100ED0008F907F906F905F904F9008950E940406CE
:100EE0006091C2007091C3008091C4009091C500D0
:100EF0000895CF930E943C088AE18A95F1F700C0DB
:100F00000E94D1040E948D05C5E10E940406C150D3
:100F1000E1F7CF91089580FF02C0949A01C09498A0
:100F200081FF02C0959A01C0959882FF02C0969AEF
:100F300001C0969883FF02C0979A089597980895E4
:100F4000CF93C82F939A82958F700E948B079398A6
:100F5000939A8C2F0E948B07939885E88A95F1F7D6
:100F60000000CF91089592980C94A007929A0C9447
:100F7000A007CF93DF93EC018991882319F00E9499
:100F8000B607FACFDF91CF91089590E4699F800D65
:100F9000112480680C94B307CF938C9A8D9A8E9A03
:100FA0008F9A8B9A8A9A8FE295E70197F1F700C0A2
:100FB000000092989398C3E0939A83E00E948B0775
:100FC00093988FE097E20197F1F700C00000C150BD
:100FD00099F7939A82E00E948B0793988FEC97E0A1
:100FE0000197F1F700C0000088E20E94B30788E093
:100FF0000E94B30781E00E94B3078FE99FE0019749
:10100000F1F700C0000086E00E94B3078CE0CF91AA
:101010000C94B307CF93DF93CDB7DEB72A970FB603
:10102000F894DEBF0FBECDBF0E94CC0760E08AE01F
:101030000E94C50780E690E00E94B90778940E945C
:10104000790760E084E00E94C50784E690E00E9492
:10105000B9070E946E070E9447098E010F5F1F4F5C
:1010600022E04AE00E94820961E084E00E94C50714
:10107000C8010E94B907E5CF11B810B8089594EAE5
:1010800096BF06B607FEFDCF91B1987F983021F04C
:10109000903111F081E0089583B984E886BF06B6E7
:1010A00007FEFDCF81B1887F883111F0803491F740
:1010B00080E0089524EA34E844E926BF06B607FE36
:1010C000FDCF91B1987F983011F09031B1F783B98D
:1010D00036BF06B607FEFDCF91B1987F903211F072
:1010E000983529F446BF06B604FCFDCFE6CF089537
:1010F0000C943F0884E986BF06B604FCFDCF089532
:1011000083B984E886BF06B607FEFDCF91B1987F0C
:1011100081E0983209F480E0089584EC86BF06B639
:1011200007FEFDCF83B1089584E886BF06B607FEAB
:10113000FDCF83B10895DB018F939F930E94EC084C
:10114000BF91AF91A29F800D911DA39F900DB29F63
:10115000900D11240895A1E21A2EAA1BBB1BFD01BC
:101160000DC0AA1FBB1FEE1FFF1FA217B307E40786
:10117000F50720F0A21BB30BE40BF50B661F771FDE
:10118000881F991F1A9469F76095709580959095BE
:101190009B01AC01BD01CF010895052E97FB1EF404
:1011A00000940E94E40857FD07D00E94AB0807FC9A
:1011B00003D04EF40C94E408509540953095219559
:1011C0003F4F4F4F5F4F0895909580957095619573
:1011D0007F4F8F4F9F4F08950E943609A59F900D16
:1011E000B49F900DA49F800D911D11240895B7FF09
:1011F0000C94EC080E94EC08821B930B08952F922C
:101200003F924F925F926F927F928F929F92AF9296
:10121000BF92CF92DF92EF92FF920F931F93CF93E3
:10122000DF93CDB7DEB7CA1BDB0B0FB6F894DEBF7A
:101230000FBECDBF09942A88398848885F846E84A0
:101240007D848C849B84AA84B984C884DF80EE80EA
:10125000FD800C811B81AA81B981CE0FD11D0FB6F3
:10126000F894DEBF0FBECDBFED010895A29FB0017F
:10127000B39FC001A39F700D811D1124911DB29FCA
:10128000700D811D1124911D0895E89409C097FBEC
:101290003EF490958095709561957F4F8F4F9F4F4D
:1012A0009923A9F0F92F96E9BB279395F695879591
:1012B00077956795B795F111F8CFFAF4BB0F11F454
:1012C00060FF1BC06F5F7F4F8F4F9F4F16C08823FB
:1012D00011F096E911C0772321F09EE8872F762F31
:1012E00005C0662371F096E8862F70E060E02AF072
:1012F0009A95660F771F881FDAF7880F969587955E
:1013000097F90895EF920F931F93CF93DF93E8011E
:1013100047FF02C034E101C034E0E42FFF27E7FDBE
:10132000F095F7FF03C0F195E195F109E32E022F47
:101330002E2FAE010E94210BCE01DF91CF911F9184
:101340000F91EF900895283008F027E03327DA0155
:10135000990F311D87FD916000966105710539F483
:1013600032602E5F3D9330E32A95E1F708959F3F69
:1013700030F080387105610509F03C5F3C5F3D93BA
:10138000913008F08068911DDF93CF931F930F93E6
:10139000FF92EF92192F987F9695E92F9695969543
:1013A000E90FFF27ED52FF4F99273327EE24FF2443
:1013B000A701E70105900894079428F4360FE71E6B
:1013C000F81E491F511D660F771F881F991F06942D
:1013D000A1F70590079428F4E70EF81E491F561F41
:1013E000C11D770F881F991F661F0694A1F70590EE
:1013F000079428F4F80E491F561FC71FD11D880FE8
:10140000991F661F771F0694A1F70590079420F493
:10141000490F561FC71FD81F990F661F771F881FB8
:101420000694A9F784911095177041F0D695C79549
:1014300057954795F794E7941A95C1F7E9E7F0E0D7
:1014400068941590159135916591959105907FE27D
:101450007395E118F10A430B560BC90BD009C0F77D
:10146000E10CF11E431F561FC91FD01D7EF47033BF
:1014700011F48A95E6CFE894015030F0080F0AF491
:101480000027021708F4202F2395022F7A3328F023
:1014900079E37D932A95E9F710C07D932A9589F623
:1014A000069497956795379517951794E118F10A63
:1014B000430B560BC90BD00998F023957E91739579
:1014C0007A3308F070E37C932013B8F77E91706153
:1014D0007D9330F0839571E37D9370E32A95E1F776
:1014E0001124EF90FF900F911F91CF91DF919927D9
:1014F00087FD90950895FC010590615070400110A2
:10150000D8F7809590958E0F9F1F0895FC0161502C
:10151000704001900110D8F7809590958E0F9F1F15
:1015200008950F931F93CF93DF93182F092FEB018B
:101530008B8181FD03C08FEF9FEF20C082FF10C021
:101540004E815F812C813D81421753077CF4E881F5
:10155000F9819F012F5F3F4F39832883108306C095
:10156000E885F985812F0995892B29F72E813F81FF
:101570002F5F3F4F3F832E83812F902FDF91CF919D
:101580001F910F910895FA01AA27283051F12031B7
:1015900081F1E8946F936E7F6E5F7F4F8F4F9F4F07
:1015A000AF4FB1E03ED0B4E03CD0670F781F891F49
:1015B0009A1FA11D680F791F8A1F911DA11D6A0F17
:1015C000711D811D911DA11D20D009F468943F91CA
:1015D0002AE0269F11243019305D3193DEF6CF01C9
:1015E0000895462F4770405D4193B3E00FD0C9F78F
:1015F000F6CF462F4F70405D4A3318F0495D31FDFC
:101600004052419302D0A9F7EACFB4E0A69597954E
:10161000879577956795BA95C9F700976105710524
:1016200008959B01AC010A2E06945795479537956E
:101630002795BA95C9F7620F731F841F951FA01DC8
:1016400008956F927F929F92AF92BF92CF92DF9256
:10165000EF92FF920F931F93CF93DF93CDB7DEB737
:1016600029970FB6F894DEBF0FBECDBF6A01B22E28
:10167000102F0C3320F4FF24F394F00E02C04CE33F
:10168000F42E0F2D27E0AE014F5F5F4F0E94A3099C
:101690007981272F2970213031F0E1FC06C0E0FC70
:1016A00006C060E005C06DE203C06BE201C060E20D
:1016B000AE2DA07173FF36C0662311F084E001C027
:1016C00083E08B1510F4B81A01C0B12CA1110BC026
:1016D000F6018B2D90E2882319F091938150FBCF76
:1016E000CB0CD11CB12C662331F0F601608396013E
:1016F0002F5F3F4F6901C6010396E2FE05C02EE44D
:10170000F601208331E404C02EE6F601208331E6A1
:1017100031832283FC012B2D30E22223F1F131931E
:101720002150FBCF72FF40C0662311F084E001C05E
:1017300083E08B1510F4B81A01C0B12CA1110BC0B5
:10174000F6018B2D90E2882319F091938150FBCF05
:10175000CB0CD11CB12C662331F0F60160839601CD
:101760002F5F3F4F6901C6010396E2FE07C029E4DF
:10177000F60120832EE4218326E406C029E6F60143
:1017800020832EE6218326E62283FC012B2D30E2E6
:10179000222319F031932150FBCFFC01EB0DF11DF9
:1017A00010828EEF9FEFB7C0B1E0611101C0B0E0D1
:1017B0004B2F50E01816190624F49C012F5F3F4F61
:1017C00002C021E030E0240F351F112329F0412F02
:1017D00050E04F5F5F4F02C040E050E0420F531FA8
:1017E0002B2D30E04217530714F4B41A01C0B12C6A
:1017F0002E2D287159F4F6012B2D30E2222319F0F9
:1018000031932150FBCFCB0CD11CB12CBB2331F039
:10181000F601608396012F5F3F4F6901A1110BC054
:10182000F6012B2D30E3222319F031932150FBCF09
:10183000CB0CD11CB12CF80E0A81372F3071A32E9E
:1018400074FF03C0013309F4FA941F142CF42F2DF4
:10185000293018F028E001C021E0682F392F97FFC8
:1018600002C060E030E0462F532F612C712C3EE225
:10187000932EBC01621B71099B01DC01A41BB50BFB
:10188000E1E0F0E0EC0FFD1FAE0FBF1FE12EF12CE9
:10189000F194E194F1084F3FFFEF5F0731F4F60157
:1018A0009082B6016F5F7F4F6B01841795074CF0F4
:1018B0002417350734F4BD01660D771DFB01118136
:1018C00001C010E341505109FFEF6F1A7F0AB601C2
:1018D0006F5F7F4F4E155F0524F0F60110836B019B
:1018E000DACF4817590739F4063320F4053319F4D1
:1018F000A11001C011E3F6011083FB018B2D90E2D2
:10190000882319F091938150FBCFFB01EB0DF11D62
:10191000108280E090E029960FB6F894DEBF0FBEEB
:10192000CDBFDF91CF911F910F91FF90EF90DF908E
:10193000CF90BF90AF909F907F906F900895F89454
:02194000FFCFD7
:0A1942006161610054455354000038
:00000001FF
